:020000040800F2
:10000000004C002061020008F73000088D2B00082A
:10001000F5300008C50A0008313D00080000000066
:10002000000000000000000000000000A101000826
:10003000ED0A000800000000FD0100081539000865
:100040007B0200087B0200087B0200087B0200089C
:100050007B020008F93000087B0200087B020008E0
:100060007B0200087B0200087B0200087B0200087C
:100070007B0200087B0200087B0200087B0200086C
:100080007B0200087B0200087B0200087B0200085C
:100090007B0200087B0200087B0200087B0200084C
:1000A0007B0200087B0200087B0200087B0200083C
:1000B0007B0200087B0200087B0200087B0200082C
:1000C0007B0200087B0200087B0200087B0200081C
:1000D0007B0200087B0200087B020008193D000833
:1000E0007B0200087B0200087B0200087B020008FC
:1000F0007B0200087B0200087B0200087B020008EC
:100100007B0200087B0200087B0200087B020008DB
:100110007B0200087B020008513900087B020008BE
:100120007B0200087B0200087B0200087B020008BB
:100130007B0200087B0200087B0200087B020008AB
:100140007B0200087B0200087B0200087B0200089B
:100150007B0200087B0200087B020008253D0008A6
:100160007B0200087B0200087B0200087B0200087B
:100170007B0200087B0200087B02000800000000F0
:100180007B0200087B020008DFF810D000F0C8FBFB
:1001900000480047D94E0008AFF30080004C002013
:1001A0002C4B19680868B0E8F04F80F30988BFF35A
:1001B0006F8F4FF0000080F311887047000000003F
:1001C00008480068006880F308884FF0000080F35A
:1001D000148862B661B6BFF34F8FBFF36F8F00DF35
:1001E00000BF00BF08ED00E0DFF80C00016841F43B
:1001F00070010160704700BF88ED00E0EFF30980F7
:10020000BFF36F8F134B1A681EF0100F08BF20ED5D
:10021000108A20E9F04F106009B44FF0500080F3CD
:100220001188BFF34F8FBFF36F8F05F05DFA4FF06A
:10023000000080F3118809BC19680868B0E8F04F25
:100240001EF0100F08BFB0EC108A80F30988BFF3CE
:100250006F8F704714000020EFF305807047000097
:100260000648804706480047FEE7FEE7FEE7FEE750
:10027000FEE7FEE7FEE7FEE7FEE7FEE7413900089E
:10028000890100082DE9F05F0546002092469B4653
:1002900088460646814640241BE02846414647469C
:1002A000224600F056FA53465A46C01A914110D3DE
:1002B00011461846224600F03DFA2D1A67EB010858
:1002C0004F4622460120002100F034FA17EB0009C6
:1002D0004E41201EA4F10104DFDC484631462A4687
:1002E0004346BDE8F09F40EA01039B0703D009E0C5
:1002F00008C9121F08C0042AFAD203E011F8013B12
:1003000000F8013B521EF9D27047D2B201E000F86A
:10031000012B491EFBD270470022F6E710B51346A9
:100320000A4604461946FFF7F0FF204610BD421C5E
:1003300010F8011B0029FBD1801A7047034611F801
:10034000012B00F8012B002AF9D1184670472DE93E
:10035000FE4F804681EA0300C00F0C46009021F05A
:10036000004123F00045B8EB0200A94105D2404608
:10037000214690461C460B46024623F0004010439F
:1003800047D0270DC7F30A00C3F30A510290401A61
:10039000019040286BDAC3F3130040F4801B0098EF
:1003A000924620B10023D2EB030A63EB0B0B0198BA
:1003B0005946C0F14002504600F0BCF906460D46D1
:1003C00050465946019A00F0D4F910EB08006141FB
:1003D000002487EA115284EAE7731A4340D0009A56
:1003E00062B3019A012A4FEA075215DC001B61EB48
:1003F00002014FF0004202EA0752CDE90042001C20
:1004000041F5801132462B4600F00BFA03B0BDE8EF
:10041000F08F40462146F9E7001B61EB0201001C0A
:1004200041F5801300185B412018A2F5001747EB37
:10043000030140EAD570B6196D4111E06D084FEA2D
:10044000360645EAC0754FEA0752001B61EB020110
:10045000001C41F5801149084FEA30000019514154
:1004600032462B4603B0BDE8F04F00F0CBB9009800
:10047000012240000023D0EB020263EBE0730098FE
:1004800021464FEAE074B8EB000061EB0401E9E7B4
:1004900083F000435BE781F0004158E72DE9FE4F10
:1004A00081EA030404F0004421F0004100944FF07D
:1004B000000B23F0004350EA01045ED052EA03042B
:1004C0005BD0C3F30A54C1F30A552C44A4F2F334AD
:1004D0000194A0FB0254C1F3130141F48011C3F352
:1004E000130343F4801301FB024400FB034E840A10
:1004F000970A44EA815447EA8357A4FB07680295A8
:100500008D0A05FB07854FEA932C04FB0C54270545
:10051000029D4FEA065847EA1637B5EB08056EEB21
:10052000070C870E920E47EA811742EA8312A7FB57
:100530000201B6EB0B0164EB00042B0D43EA0C3314
:100540005E1844EB1C50DA465146E7FB0201C5F346
:1005500013044FEA0B3343EA14534FEA0432019C6D
:1005600043EA0603A4F10C040294009CCDE900B414
:1005700000F057F903B0BDE8F08F00200146F9E71D
:100580002DE9F04D81EA030404F0004B21F0004511
:1005900014464FF0000A23F0004150EA050220D033
:1005A00054EA01021DD0C5F30A570246C5F31303EE
:1005B000C1F31300C1F30A5640F4801543F48013CD
:1005C000A7EB0608101BD64608F2FD3873EB0500B2
:1005D00002D308F1010801E092185B41B8F1000F65
:1005E00003DA00200146BDE8F08D00204FF48011B1
:1005F000064684460EE0171B73EB050705D3121B56
:1006000063EB050306434CEA010C49084FEA30004E
:1006100092185B4150EA0107EDD152EA030012D073
:1006200082EA040083EA0501084305D0101BAB41B0
:1006300006D20122002306E000224FF0004302E030
:100640006FF0010253101AEB06004CEB085110EB4F
:100650000A0041EB0B01BDE8F04D00F0D3B80EB538
:1006600040F2334102910021CDE900110A460B46C8
:1006700000F0D7F803B000BDC1F30A5210B5C1F3C2
:10068000130140F2FF3341F480119A4201DA002055
:1006900010BD40F233439A42A2F2334203DC52428D
:1006A00000F057F810BD904010BD00F0004230F04F
:1006B00000400AD0C10D01F56071C0F3160042EA96
:1006C0000151C2084007114370470020014670479E
:1006D00001F0004330B421F0004150EA010206D09D
:1006E0000A0DA2F56072C1F31301002A02DC30BCCE
:1006F00000207047440F44EAC104C100E01830BC38
:1007000000EBC25000F047B830B50B460146002060
:100710002022012409E021FA02F59D4205D303FAC3
:1007200002F5491B04FA02F52844151EA2F1010244
:10073000F1DC30BD202A04DB203A00FA02F100206F
:1007400070479140C2F1200320FA03F3194390400F
:100750007047202A04DB203A21FA02F0002170477A
:1007600021FA02F3D040C2F1200291400843194619
:100770007047202A06DBCB17203A41FA02F043EA01
:10078000E07306E041FA02F3D040C2F1200291404A
:100790000843194670470029A8BF7047401C49000C
:1007A00008BF20F00100704710B4B0FA80FC00FAD6
:1007B0000CF050EA010404BF10BC704749B1CCF101
:1007C000200421FA04F411FA0CF118BF012121438D
:1007D0000843A3EB0C01CB1D4FEA00614FEA102048
:1007E00042BF002010BC704700EBC35010440029EA
:1007F000A4BF10BC7047401C490008BF20F0010096
:1008000010BC704710B5141E73F1000408DA401CC8
:1008100041F1000192185B411A4301D120F001001F
:1008200010BD2DE9F04D92469B4611B1B1FA81F20F
:1008300002E0B0FA80F220329046FFF77BFF0446D8
:100840000F4640EA0A0041EA0B0153465A46084364
:1008500013D0114653EA010019D0C8F140025046A6
:10086000FFF777FF05460E46504659464246FFF7CA
:1008700061FF084305D0012004E020463946BDE869
:10088000F08D0020054346EAE0762C4337430A9872
:100890006305E40AA0EB08000022FD0A44EA47547D
:1008A0000A3002D500200146E9E701051019694127
:1008B000DDE9084500196941BDE8F04DA2E7C1F343
:1008C0000A52C1F3130140F2FF3341F480119A42FE
:1008D00002DA00200146704740F233439A42A2F206
:1008E000334202DC5242FFF734BFFFF723BF000060
:1008F00030B5041E71F1000404DB4FF000444042A7
:1009000064EB0101141E73F1000405DB1C464FF07B
:100910000043524263EB0403994208BF904230BD4A
:10092000064C074D06E0E06840F0010394E807003C
:1009300098471034AC42F6D3FFF72AFCA05A0008BF
:10094000C05A000870B58C1810F8015B15F0070349
:1009500001D110F8013B2A1106D110F8012B03E058
:1009600010F8016B01F8016B5B1EF9D12B0705D460
:100970000023521E0DD401F8013BFAE710F8013BA9
:10098000CB1A921C03E013F8015B01F8015B521EC5
:10099000F9D5A142D8D3002070BD0000464910B55A
:1009A0004A6822F440324A604A6843681A434A60FF
:1009B00001684A6822F480724A6001684A680369E3
:1009C00042EA03224A6001684A6822F040724A60A3
:1009D00001684A6883681A434A6001688A6822F499
:1009E00000628A6001688A68C3681A438A60816A03
:1009F0006FF07062D14201688A6822F070628A608A
:100A000001688A680CD0836A1A438A6001688A6820
:100A100022F040528A6001688A68C36A1A4301E082
:100A200022F040528A6001688A6822F002028A60DD
:100A300001688A68037E42EA43028A6090F82010C7
:100A4000002901684A680FD042F400624A600168D8
:100A50004A6822F460424A6001684A68174C436A57
:100A600004EB43331A4301E022F400624A60016858
:100A7000CA6A22F47002CA620168CA6A838B104C87
:100A800004EB03531A43CA6201688A6822F40072B5
:100A90008A6001688A6890F8303042EA43228A60AE
:100AA00001688A6822F480628A6001688A68406905
:100AB00042EA8020886010BD0023014000E0FFFF73
:100AC0000000F0FFFEE70FB400B5C1B043AA6846CE
:100AD000429903F079FD0146FF2801D94FF4807156
:100AE000684602F09FFF41B05DF814FB704772B694
:100AF000FEE70000064A136823F44073136013688E
:100B00001360136843F00103136001707047000025
:100B1000103C0240094910B50C6824F440740C6084
:100B20000C6844F440740C600C6844F001040C60E0
:100B30000260BFF36F8F436010BD0000103C0240A5
:100B4000074A136823F440731360136843F48073F7
:100B50001360136843F001031360018070470000C5
:100B6000103C0240074A136823F440731360136873
:100B700043F400731360136843F0010313600160D2
:100B800070470000103C024017490868C206174829
:100B900005D5C26942F01002C26110220A600A68DB
:100BA000920605D5C26942F00802C26120220A609D
:100BB0000A68520605D5C26942F00402C2614022A9
:100BC0000A600A68120605D5C26942F00202C261D3
:100BD00080220A600A68920705D5C26942F02002A5
:100BE000C2610220086070470C3C0240800800206F
:100BF00070B5114904460020C86100F0E1FB0646CB
:100C00000E4D09E0601C07D024B100F0D9FB801B19
:100C1000A04201D9032070BD2868C003F2D428681F
:100C2000C00701D001202860286810F0F200F2D03F
:100C3000FFF7AAFF012070BD800800200C3C024095
:100C400078B50024009490F83C20012A19D00122A4
:100C500080F83C200A6807230568092A13D9EE6842
:100C60000A3A02EB420293409E43EE600B788A6898
:100C70000A3B03EB43039A400368DD682A43DA60CA
:100C800010E0022078BD2E6902EB420293409E43A1
:100C90002E610B788A6803EB43039A4003681D6951
:100CA0002A431A614A681F23072A13D205686E6B0C
:100CB000521E02EB820293409E436E630B790A88B8
:100CC0005B1E92B203EB83039A4003685D6B2A4379
:100CD0005A6327E005680D2A12D22E6BD21F02EB51
:100CE000820293409E432E630B790A88DB1F92B2E7
:100CF00003EB83039A4003681D6B2A431A6311E0D8
:100D0000EE6A0D3A02EB820293409E43EE620B794B
:100D10000A880D3B92B203EB83039A400368DD6AB5
:100D20002A43DA62164B0568144A9D4206D10D68C3
:100D3000122D03D1556845F48005556005689D4224
:100D400018D10B68102B01D0112B13D1536843F429
:100D500000035360096810290CD10A490A4A09683E
:100D6000B1FBF2F101EB8101490000E0491E009165
:100D70000029FBD180F83C40002078BD00230140D1
:100D8000002001401000002040420F000068C06CAD
:100D9000704770B504004FF0000503D0206C0026AA
:100DA00010B107E0012070BD204600F01DF8666418
:100DB00084F83C60206CC00610D4206C20F488506D
:100DC00040F0020020642046FFF7E8FD6664206CD6
:100DD00020F0020040F00100206400E0012584F8CA
:100DE0003C60284670BD000010B586B00446142152
:100DF0006846FFF791FA1149206888421CD11048D3
:100E00000021026842F480720260006800F4807081
:100E100005900B481438026842F001020260006835
:100E200000F001000590042000900320CDE90101AD
:100E30006946044800F0C6F906B010BD0020014024
:100E400044380240000002402DE9F04104460068A9
:100E50000D4681684FF0000749050BD58068C00535
:100E600008D5206C40F02000206484F83C700120FC
:100E7000BDE8F08100F0A4FA064613E0681C11D02A
:100E800025B100F09DFA801BA8420BD920680068AC
:100E9000800707D4206C40F00400206484F83C7084
:100EA0000320E5E7206800688007E7D521686FF038
:100EB00012000860206C40F4007020642068816893
:100EC00011F0405F13D1217E89B9C16A11F4700F0E
:100ED00002D0806840050AD4206C20F48070206421
:100EE000206CC00403D4206C40F00100206400207A
:100EF000BEE7000018B50021009190F83C20012ABF
:100F000007D0012280F83C2002689368DB0702D0FA
:100F100011E0022018BD936843F0010393602E4A4C
:100F20002E4B1268B2FBF3F202EB420200E0521EBB
:100F30000092002AFBD102689368DB0742D0036C61
:100F400040F20164A34343F48073036453685B0578
:100F500005D5036C23F4005343F480530364036CFE
:100F6000DB0404D5436C23F00603436400E04164D2
:100F700080F83C101A496FF022031360496800683A
:100F8000CA06184906D0884224D1816811F0405F12
:100F900013D01FE08842F8D0134A904203D1D1F811
:100FA0000423D206F1D0114A904213D1D1F8041390
:100FB00001F01F011029E8D30CE0816841F0804165
:100FC000816007E0016C41F010010164416C41F067
:100FD00001014164002018BD1000002040420F00B4
:100FE0000023014000200140002101400022014077
:100FF00090F83C1001290CD0012180F83C100168C8
:101000008A6822F001028A6001688968C90702D0F3
:1010100007E002207047016C21F4885141F0010182
:101020000164002180F83C10084670472DE9F0412A
:101030000446876D00F0C4F9064694F83500002593
:10104000022806D08020606584F834500120BDE875
:10105000F0812068016821F0160101602068416973
:1010600021F080014161206C08B9A06C20B120689A
:10107000016821F0080101602068016821F0010188
:1010800001600CE000F09CF9801B052807D92020A6
:101090006065032084F8350084F83450D7E7206871
:1010A0000068C007EED194F85C103F208840B8601B
:1010B000012084F8350084F834500020C7E790F808
:1010C0003510022903D08021416501207047052198
:1010D00080F835100068016821F0010101600020EE
:1010E0007047000070B5044600F06AF90546601CC0
:1010F00002D004480078044400F062F9401BA0428A
:10110000FAD370BD040000200348016841F000419B
:101110000160002070470000103C02402DE9F047BC
:101120001B4E05461446307E1F468946012808D0CE
:10113000012030764CF250384046FFF759FD18B187
:1011400014E00220BDE8F0879DB1012D16D0022DDC
:1011500019D022463B464846FFF7DCFC4046FFF7E5
:1011600047FD0C490A6822F001020A60002131762D
:10117000E8E7E1B24846FFF7BDFCEFE7A1B2484619
:10118000FFF7DEFCEAE721464846FFF7EBFCE5E720
:1011900080080020103C0240074900200A68002A0D
:1011A00009DA054A054B0C3A1360054B13600968D0
:1011B000002900DA01207047103C024023016745F6
:1011C000AB89EFCD2DE9F84FDFF8BCA10022012556
:1011D00003264FF00F090AF1040BAAF1040E00BF19
:1011E0000B6805FA02F42340A34270D10F7907F08F
:1011F0000307012F01D0022F16D187684FEA42085A
:1012000006FA08FC27EA0C07D1F80CC00CFA08FC17
:101210004CEA070CC0F808C04768A7430C79C4F330
:10122000001494403C4344600C79E443A4070AD082
:10123000C4684FEA420C06FA0CF7BC438F6807FA01
:101240000CF72743C7600C7904F00304022C12D179
:10125000D40800EB840CDCF820405707FF0E09FA95
:1012600007F824EA0804D1F8108008FA07F848EAD9
:101270000408CCF8208004684FEA420C06FA0CF708
:10128000BC430F7907F0030707FA0CF72743076001
:101290004C6814F4403F70D03C4C276847F48047BA
:1012A0002760246822F0030704F480440094384C3B
:1012B00007EB040CDCF8084897074FEA177809FA9F
:1012C00008F7BC43334FB84202D1002724E054E072
:1012D000314FB84201D101271EE0304FB84201D151
:1012E000022719E02E4FB84201D1032714E02D4FF9
:1012F000B84201D104270FE02B4FB84201D1052796
:101300000AE02A4FB84201D1062705E0284FB8422B
:1013100001D1072700E0082707FA08F72743CCF890
:101320000878DAF800405746D1F804C09C435FEAD9
:10133000CC2C00D51C433C60DBF800405F46D1F864
:1013400004C09C435FEA8C2C00D51C433C60DEF853
:1013500000407746D1F804C09C435FEA8C3C00D53E
:101360001C433C60084F083F3C68D1F804C09C43D4
:101370005FEACC3C00D51C433C60521C102AFFF4B1
:101380002FAFBDE8F88F0000083C01404438024010
:10139000003001400000024000040240000802400A
:1013A000000C0240001002400014024000180240ED
:1013B000001C02400AB1816170470904FBE700008C
:1013C00001488068704700000400002070B50400E8
:1013D00011D021684CF6CC400860216845F2555088
:1013E0000860D4E9000141602168A0688860FFF7C7
:1013F000E7FF05460DE0012070BD00BFFFF7E0FFED
:10140000401B312805D92068C068800701D003201F
:1014100070BD2068C0688007F0D121684AF6AA2014
:101420000860002070BD00684AF6AA210160002013
:10143000704700000248816802781144816070475B
:1014400004000020094810B5016841F400710160F2
:10145000016841F480610160032000F0A9F80F20C9
:1014600000F006F800F050F8002010BD003C0240EB
:1014700030B505461F4887B00024016841F01001CF
:101480000160006806A900F01000009001A800F0BB
:10149000EBF90498A8B100F007FA40001649174A82
:1014A000B0FBF1F11648491E026040F2E732C0E994
:1014B0000324C0E90114846100F031FF040003D06B
:1014C00015E000F0F1F9E9E70D4800F057FF0400DE
:1014D0000DD1362000F03EF8102D07D2002229460B
:1014E000362000F045F80748056000E0012407B009
:1014F000204630BD4038024040420F0000100040FE
:101500003808002008000020114808B5016841F49F
:1015100080410160006800F4804000900C48001F8A
:10152000016841F0805101600068002200F08050A5
:1015300000900F21901E00F01BF8052100220846A4
:1015400000F016F8BDE80840052000F003B80000E0
:1015500044380240002809DB00F01F0201219140BD
:101560004009800000F1E020C0F800117047000041
:10157000F0B40E4B1B680C46C3F30223C3F10705FE
:10158000042D00D90425191D072901D2002300E0EC
:10159000DB1E012606FA05F1491E214099409E40B6
:1015A000761E16403143F0BC03F020B80CED00E08D
:1015B000064900F0070208684FF6FF03184040EAAA
:1015C0000220034A10430860704700000CED00E061
:1015D0000000FA05BFF34F8F05480168054A01F482
:1015E000E06111430160BFF34F8F00BFFDE70000D2
:1015F0000CED00E00400FA052DE9F843054600680B
:101600004FF00109C1074FF0000601D1400727D56F
:10161000DFF80C81C8F86860FFF7D2FE0746414C3E
:1016200005E000BFFFF7CCFEC01B022857D820689A
:101630000001F7D468688101287A41EA00703949CD
:1016400084310860C8F86890FFF7BAFE074604E0E6
:10165000FFF7B6FEC01B022841D820680001F7D56D
:101660002878800752D52F484030016841F08051DA
:10167000016000682C4C00F080500090206840F41D
:1016800080702060FFF79CFE074604E0FFF798FE9D
:10169000C01B022823D82068C005F7D5214C703420
:1016A000206810F4407020D0A98901F44071814273
:1016B0001BD020681D4920F44070C1F800900E60D6
:1016C00020602068C00710D0FFF77AFE064641F27E
:1016D000883707E0FFF774FE801BB84202D9032069
:1016E000BDE8F88320688007F4D5E9680D48C1F3A8
:1016F00001220830032A0BD0016821F4F81101609F
:101700002068A989C1F30B01084320600020E7E7A6
:101710000268074B22F4F81219400A430260EFE70F
:10172000000047420038024000700040400E47422F
:10173000FFFCFF0F2DE9F0470E46050065D0DFF8EE
:101740001481D8F80000F7B200F00700B04207D2C9
:1017500088F80070D8F8000000F00700B04254D1BB
:1017600028683D4C810712D5400703D5206840F416
:10177000E05020602878000703D5206840F46040DE
:1017800020602068A96820F0F000084320602878D5
:10179000C0072DD0304968680839012812D00228C6
:1017A00013D0032811D00968890700292DDA216890
:1017B00021F0030101432160FFF702FE814641F25F
:1017C000883A0EE009688903EFE709688901ECE7C8
:1017D000FFF7F6FDA0EB0901514502D90320BDE852
:1017E000F0872068696800F00C00B0EB810FEFD142
:1017F000D8F80010404601F00701B14207D9077040
:10180000006800F00700B04201D00120E7E7287827
:10181000400705D52068E96820F4E05008432060BF
:101820002878000706D52068296920F4604040EA3E
:10183000C100206000F058F82168084AC1F3031184
:10184000515CC8400649086006480068FFF710FE72
:101850000020C4E7003C024008380240785A0008E3
:1018600010000020080000200F2202600C4A1368BC
:1018700003F003034360136803F0F003836013680D
:1018800003F4E053C36012684FF4E05303EAD2025A
:1018900002610448006800F007000860704700001B
:1018A00008380240003C02400448054900680968C5
:1018B000044AC1F38221515CC840704710000020E7
:1018C00008380240885A0008044805490068096839
:1018D000044AC1F34231515CC840704710000020F7
:1018E00008380240885A0008104810B5006810F007
:1018F0000C010F4818D0042916D0082914D10B4C1C
:10190000241F216801F03F02216821680023C1F3F0
:101910008811A1FB0001FEF7B5FC2168C1F301416C
:10192000491C4900B0FBF1F010BD0000083802402E
:101930000024F4002DE9F84F04006ED02078DFF881
:101940004C93C007A9F104054AD009F104000168CD
:10195000C1F38101012908D00068C0F38100022889
:101960000AD1D9F80000400206D52868800337D58F
:1019700060680028E1D033E06068B0F5803F10D0A7
:10198000B0F5A02F286810D020F480302860286897
:1019900020F4802028606068A8B1FFF711FD06469A
:1019A0000DE0286840F48030F4E740F4802028609F
:1019B000F7E700BFFFF704FD801B642873D8286891
:1019C0008003F7D50CE0FFF7FBFC064605E000BFFF
:1019D000FFF7F6FC801B6428F0D828688003F7D452
:1019E0002078DFF8AC8280074FF0000A3ED5A74888
:1019F000001D016811F00C0F08D00068C0F38100D1
:101A000002280BD1D9F80000400207D428688007CB
:101A100016D5E068012800D112E033E1E068B8B1E2
:101A20000120C8F80000FFF7CBFC064605E000BF28
:101A3000FFF7C6FC801B0228C0D828688007F7D5AE
:101A40002868216920F0F80040EAC10028600DE014
:101A5000C8F800A0FFF7B4FC064604E0FFF7B0FCAE
:101A6000801B02281FD828688007F7D42078000739
:101A700022D5864F87486169703771B101210160B5
:101A8000FFF79EFC064604E0FFF79AFC801B022845
:101A900009D838688007F7D50EE0C0F800A0FFF736
:101AA0008FFC064605E082E0FFF78AFC801B0228D7
:101AB0007DD838688007F7D42078400768D5DFF8EC
:101AC000CCB100270BF13C0BDBF80000C0000BD4BD
:101AD000DBF8001041F08051CBF80010DBF800007B
:101AE000012700F0805000906B4E3068C00510D484
:101AF000306840F480703060FFF762FC009005E0D1
:101B0000FFF75EFC0099401A022850D83068C005E3
:101B1000F6D55E4EA0686C3601280FD005283068D7
:101B200010D020F001003060306820F004003060F8
:101B3000A068B8B1FFF744FC00900FE0306840F0B7
:101B40000100F4E740F004003060F7E7FFF738FCED
:101B50000099411A41F28830814266D83068800786
:101B6000F4D50EE0FFF72CFC009007E0FFF728FC0F
:101B70000099411A41F28830814256D83068800776
:101B8000F4D42FB1DBF8001021F08051CBF8001015
:101B9000A069C8B33D49091D0968C1F38101022943
:101BA0004AD00228504607D0C8F8600000E03CE068
:101BB000FFF706FC04463BE04746C8F86000FFF725
:101BC000FFFB064605E000BFFFF7FAFB801B02287B
:101BD0002BD828688001F7D4D4E907010843A16A0B
:101BE0002E4A490802EB0141626A41EA8211084328
:101BF00094F82C1040EA0161C9F800100120386601
:101C0000FFF7DEFB044606E03EE000BFFFF7D8FB2F
:101C1000001B022809D828688001F7D534E000BFEE
:101C2000FFF7CEFB001B022802D90320BDE8F88F86
:101C300028688001F4D427E00128F7D0D9F8000003
:101C4000E26900F4800191421CD1226A00F03F0158
:101C5000914217D147F6C071626A0140B1EB821F11
:101C600010D1A26A4FF0FF3300F4403103EB52026F
:101C7000B1EB024F06D194F82C1000F07060B0EB7D
:101C8000016F01D00120D1E70020CFE704380240E6
:101C900000004742800E4742007000400000FFFFF6
:101CA0002DE9F0470446007900278A4601280ED026
:101CB0000125257160794FF00009012809D0042021
:101CC000A060012784F804903846BDE8F087022020
:101CD000FBE74FF0020884F80580FFF771FB06462A
:101CE00011E000BFFFF76CFB801B02280BD92068B6
:101CF0004068C043C00706D06571C4F8088084F806
:101D000004900120E1E720684068C043C007E9D1A2
:101D100020688068E060CAF800006571D2E770B59D
:101D2000040003D06079002510B105E0012070BDEA
:101D30002571204600F00CF80220607120680168CF
:101D400041F00401016001206071A560002070BDB8
:101D500008B500680649884208D10648016841F084
:101D600040010160006800F04000009008BD0000E4
:101D7000000806503438024010B5040002D0607FDD
:101D800010B106E0012010BD00202077204600F0B1
:101D900039F8022060772168CA2048622168532000
:101DA0004862204601F0B6F930BB20688168144AC9
:101DB000114081602168886862681043D4E9042377
:101DC0001A43104388602168E0680861206801694F
:101DD000228941EA02410161204601F0BFF958B968
:101DE00021680A6C22F480220A6421680A6CA369C3
:101DF0001A430A64012161772268FF21516210BDF4
:101E0000BFFF8FFF1FB50021009101910291039147
:101E10000068084988420CD102200090000203901B
:101E20006846FFF7E9FB08B1FEF761FE02490120B1
:101E300008601FBD002800403C0E474270B50446B4
:101E4000007F0B46012819D00126267702206077F3
:101E5000B2B19878D97840EA0145587819780002EB
:101E600040EA413005432168CA2048622168532076
:101E70004862204601F04EF9D0B122E0022070BD48
:101E80005878C10603D500F0EF000A305870D878B2
:101E900001F033F90204587801F02FF942EA0022E8
:101EA000987801F02AF90243187842EA4035DAE7D7
:101EB0000748054020684560204601F04FF900B909
:101EC00066772268FF2151620021217770BD0000F2
:101ED0003FFFFF002DE9F0410446007F0D46012839
:101EE00023D04FF0010884F81C800220607720681E
:101EF000002780684FEA4060D2B1002800DBEF7015
:101F0000A878297840EA01466878E978000240EA32
:101F1000815006432168CA204862216853204862E4
:101F2000204601F0F7F8B8B12CE00220BDE8F081BE
:101F3000002800DBEF70287801F0DFF802046878F1
:101F400001F0DBF842EA0022A87801F0D6F802435B
:101F5000E87842EA8056DDE70D48064020680660D2
:101F60002068816821F480218160D5E9030108435C
:101F700021688A6810438860204601F0EFF808B9AC
:101F800084F81D802268FF2151622777CEE7000088
:101F90007F7F7F0070B504460068C16821F0A00112
:101FA000C160FFF70DFA05464FF47A7607E000BFEF
:101FB000FFF706FA401BB04201D9032070BD20682C
:101FC000C0688006F4D5002070BD70B5040009D04B
:101FD000606A002540B125616561A56294F85100F1
:101FE00040B10CE0012070BD6068B0F5827FF4D094
:101FF000E561F2E784F85050204600F045F80220F1
:1020000084F851002068016821F040010160A08837
:10201000218900F4827001F404410843A18901F48C
:1020200000610843217C01F002010843217D01F099
:1020300001010843218B01F400710843217F01F065
:102040003801084394F8201001F080010843218DE5
:1020500001F40051084321680860A069042101EAE5
:10206000104094F8241001F01001084321684860E2
:102070002068C16921F40061C1616565012084F8AF
:102080005100002070BD000070B586B004461421D8
:102090006846FEF741F9234E2268002122480223B8
:1020A00003240525B2421AD11F4A1432166846F499
:1020B00080561660126802F480520592026842F05F
:1020C00001020260006802AA00F00100059082E8A7
:1020D0003200E020CDE90003694614481DE0144EAB
:1020E000B2421CD1104A1032166846F4804616607F
:1020F000126802F480420592026842F00202026015
:10210000006802AA00F00200059082E832004FF455
:102110006040CDE9000369460648FFF753F806B072
:1021200070BD000000300140303802400000024025
:1021300000380040000402402DE9F84F044690F8B2
:10214000500000270A9E1D4692468B464FF001091B
:1021500001280ED0012084F85000FFF731F98046A5
:1021600094F85100616801280CD0B1F5827F07D145
:1021700002E00220BDE8F88FA16809B9042801D067
:102180000227C2E0BBF1000F27D0BAF1000F24D024
:102190001DB394F85100042802D0052084F85100A2
:1021A00000206065C4F838A0E587A587C4F830B082
:1021B000E586A5862064606420680168490603D42A
:1021C000016841F040010160E068B0F5006F6068AF
:1021D00005D0E8B3012D46D07FE0012795E008B196
:1021E000012D39D1206B21680088C860206B801CCC
:1021F0002063E08E401EE0862EE02068816889071B
:102200000FD5E18E69B1B9F1010F0AD1216B0988AF
:10221000C160206B801C2063E08E401EE0864FF082
:10222000000920688168C9070CD0E18F51B1C068EE
:10223000A16B0880A06B801CA063E08F401EE0872C
:102240004FF00109FFF7BCF8A0EB0800B04200E036
:1022500009E001D3701C50D1E08E0028CDD1E08F71
:102260000028CAD13FE0206B216800780873206BFA
:10227000401C2063E08E401EE0862EE020688168CE
:1022800089070FD5E18E69B1B9F1010F0AD1216B30
:1022900009780173206B401C2063E08E401EE086AD
:1022A0004FF0000920688168C9070CD0E18F51B157
:1022B000C068A16B0870A06B401CA063E08F401E3B
:1022C000E0874FF00109FFF77BF8A0EB0800B04270
:1022D00002D3701C01D010E07EB1E08E0028CDD179
:1022E000E08F0028CAD142463146204600F04CFF1C
:1022F00028B101272020606507E0032705E0A068DA
:1023000018B92068C16880680090012084F85100E5
:10231000002084F8500038462CE77047704710B50D
:10232000040003D094F83D0010B107E0012010BD77
:10233000002084F83C00204600F01EF8022084F8BB
:102340003D00211D206801F009FB012084F84600B2
:1023500084F83E0084F83F0084F8400084F841008F
:1023600084F8420084F8430084F8440084F845006F
:1023700084F83D00002010BD7047000090F83D102B
:10238000012901D001207047022180F83D10016829
:10239000CA6842F00102CA6000681149884214D03C
:1023A000B0F1804F11D00F4988420ED00E498842BB
:1023B0000BD00E49884208D00D49884205D00D49FE
:1023C000884202D00C49884204D1816801F007019B
:1023D000062903D0016841F0010101600020704727
:1023E000000001400004004000080040000C0040D4
:1023F000000401400040014000180040704770B5E3
:102400000446006801694FF00005C943890715D4E7
:10241000C168C943890711D4E91E016101202077F1
:10242000206880698007204602D0FFF7E7FF04E0BC
:1024300000F098F8204600F096F8257720680169AA
:10244000C943490717D4C168C943490713D46FF07A
:1024500004010161022020772068806910F4407F28
:10246000204602D0FFF7CAFF04E000F07BF82046C8
:1024700000F079F8257720680169C943090716D467
:10248000C168C943090712D46FF008010161042033
:1024900020772068C0698007204602D0FFF7AEFF92
:1024A00004E000F05FF8204600F05DF82577206832
:1024B0000169C943C90617D4C168C943C90613D401
:1024C0006FF010010161082020772068C06910F4C6
:1024D000407F204602D0FFF791FF04E000F042F871
:1024E000204600F040F8257720680169C943C907F4
:1024F00008D1C168C943C90704D1891E01612046BA
:1025000000F032F820680169C943090609D4C1689E
:10251000C943090605D46FF0800101612046FFF729
:10252000FCFE20680169C943490609D4C168C94352
:10253000490605D46FF040010161204600F01EF805
:1025400020680169C94389060BD4C168C94389065B
:1025500007D46FF0200101612046BDE87040FFF70D
:10256000DDBE70BD7047704700680349884201D1E5
:10257000FEF760BF704700000010004070477047D2
:1025800070470000F8B5016804460868CA684B69DE
:1025900010F00F0F4FF0000559D003F0010602F4C0
:1025A0009077374365D0C10705D0D10503D5216C9D
:1025B00041F001012164410705D5D90703D0216C01
:1025C00041F002012164810705D5D90703D0216CB0
:1025D00041F004012164010707D502F020013143D5
:1025E00003D0216C41F008012164216C00293AD00C
:1025F000800604D5900602D5204601F04CFA2068EA
:102600004069216CC0F38010090700D460B32046F4
:1026100001F01AFA20684069400621D5206814307C
:1026200050E8001F21F0400140E80012002AF5D1D7
:10263000A06BA8B16C490165A06BFEF740FD0028B6
:1026400011D0A06B016D01B0BDE8F04008478306D2
:102650000FD593060DD52046BDE8F84001F01BBA12
:102660002046FFF78DFFF8BD2046FFF789FF256460
:10267000F8BD266B2023012E79D1C60677D5D60664
:1026800075D50868486800904869400640D5A16B38
:10269000086840680004000CEAD0A28D8242E7D9A5
:1026A000E085C869B0F5807F2DD020680C3050E8F7
:1026B000001F21F4807140E80012002AF5D1206843
:1026C000143050E8001F21F0010140E80012002AF8
:1026D000F5D12068143050E8001F21F0400140E897
:1026E0000012002AF5D184F83E30256320680C30B2
:1026F00050E8001F21F0100140E80012002AF5D137
:10270000A06BFEF793FCA08DE18D401A81B229E009
:10271000A08DE18D401A81B2E08D0028A8D000295B
:10272000A6D020680C3050E8002F22F4907240E8C8
:102730000026002EF5D12068143050E8002F22F03A
:10274000010240E80026002EF5D184F83E302563D2
:1027500020680C3050E8002F22F0100240E80023DF
:10276000002BF5D12046FFF70AFFF8BDFFE705066D
:102770002BD5150629D594F83D002128F5D1A06860
:10278000B0F5805F01D12069B0B1206A411C21629F
:10279000216800784860E08C401E0004000CE08452
:1027A000E3D12068C16821F08001C1602068C16860
:1027B00041F04001C160D8E7206A0088C0F30800FA
:1027C0004860206A801C2062E5E74006CDD55006AF
:1027D000CBD5CA68204622F04002CA6084F83D305A
:1027E00000F0D1F9C1E70000393A000870B50400E3
:1027F00004D094F83D00002510B106E0012070BD22
:1028000084F83C50204600F023F8242084F83D0052
:102810002068C16821F40051C160204601F09CF994
:102820002068016921F4904101612068416921F02B
:102830002A0141612068C16841F40051C1602564EA
:10284000202084F83D0084F83E00002070BD000088
:102850002DE9F04786B0044614216846FDF75CFD7B
:102860006749DFF898C123680024654A10390225BA
:102870000326082763484FF4406A634517D113685D
:1028800043F400231360126802F4002205920A68E0
:1028900042F004020A600968CDF800A001F00401CA
:1028A000CDE904710396CDE9015469462DE0DFF8C6
:1028B00058C163452ED1136843F480131360126826
:1028C00002F4801205920A6842F004020A600A6863
:1028D00002F0040205920A6842F008020A600968E0
:1028E00002AB01F0080105914FF48051CDE90015CC
:1028F00083E8D0006946FEF765FC0420CDE90005B9
:1029000002AB694683E8D0004048FEF75BFC06B0A6
:10291000BDE8F087DFF8F880DFF8E4C04FF0070982
:102920000CF1040C43451CD1DCF8000040F0100011
:10293000CCF80000DCF8000000F0100005900868FA
:1029400040F001000860086802AA00F0010005904C
:102950004FF4C060CDE9000582E8500269462D4879
:10296000D3E7DFF8B480434520D1106840F48020DD
:102970001060106800F480200590086840F00200A4
:1029800008600868CDF800A000F00200CDE90490CE
:102990000396CDE9015469462048FEF713FC002256
:1029A00005212720FEF7E4FD272024E01C4A93425E
:1029B000ADD1DCF8002042F02002CCF80020DCF899
:1029C000002002F0200205920A6842F004020A6028
:1029D000096802AA01F004010591C021CDE90015A2
:1029E00082E8D0006946FEF7EDFB00220521472072
:1029F000FEF7BEFD4720FEF7ADFD88E7004C004026
:102A0000403802400008024000500040000C0240E4
:102A10000010014000000240004800400004024055
:102A20000014014090F83E30202B0ED159B152B124
:102A300090F83C30012B08D0012380F83C30002373
:102A4000036301F00FB901207047022070470000B6
:102A500030B401681B480268126891422FD190F887
:102A60007410012924D0014690F87220B1F870103A
:102A70000A2A10D000F10C03134CCA54B0F870109D
:102A8000124A491CA0F87010117890F87230635403
:102A9000491C11700CE0012280F87420A0F8761017
:102AA0000021A0F870100A490B78012B00D00A70A1
:102AB00000680449012230BC7231FFF7B3BF30BC5B
:102AC00070470000D40200209B47002054030020E0
:102AD000AA0200202DE9F843044690F83D001F4665
:102AE00016460D4620284CD1C5B1BEB194F83C0025
:102AF000012846D0012084F83C004FF00008C4F8BB
:102B00004080212084F83D00FEF75AFCA6848146CF
:102B1000E684A068B0F5805F03D004E00120BDE842
:102B2000F883206928B12E465FF0000584F83C80C8
:102B30000EE00026FAE78021204601F0B0F8A0B9A7
:102B4000AEB116F8010B21684860E08C401EE084AD
:102B5000E08C4B464FF0000200970028EBD14FF07D
:102B60004001204601F09BF830B10320D7E735F84B
:102B7000020BC0F30800E6E7202084F83D000020A7
:102B8000CDE70220CBE7704700F07CB9FEE70000FC
:102B90000148FEF748BC0000F805002010B5017898
:102BA00080F801114178827841EA0221C27841EA35
:102BB0000241027941EA0261C0F80411417980F8CA
:102BC00008118179C27941EA0221A0F80A11037A39
:102BD000A0F80C31002180F8101180F8061290F84E
:102BE0000011A1F10902002A19DD427A80F81021B2
:102BF0000A39C9B20A2280F80612994201D001208E
:102C000010BD002107E0835C4418521C491C84F865
:102C1000113192B2C9B290F806328B42F3D800203B
:102C200010BD90F806220A2102B10B2190F8003164
:102C300011448B4201D20220704790F801110170BB
:102C4000D0F8041141700B0A83700B0CC370090E8D
:102C5000017190F808114171B0F80A118171090AE7
:102C6000C17190F80C1101722AB190F810114172E3
:102C70000A21002209E000207047831893F81131DF
:102C80004354491C521C89B2D2B290F80632934286
:102C9000F3D880F80011EEE790F8012122F0E0026D
:102CA000403280F80121FF2280F80021094AC0F853
:102CB000042190F8082142F0800280F80821A0F851
:102CC0000A110021A0F80C1180F8101180F80612EA
:102CD000FFF7A7BF0900FFFF70B50446DDE90465F3
:102CE00090F80101012920F0E0001DD010F1400012
:102CF00084F80101FF2084F800010C48C4F80401A5
:102D00001888A4F80A01A4F80C5184F810212A4666
:102D1000314604F21110FDF7E6FA84F80652204617
:102D2000BDE87040FFF77DBF6030E1E70900FFFFBD
:102D30007FB500241448009401940294114903942F
:102D4000C0E9001484600461047680F820400F49D3
:102D5000C0E90A140125C561C46080F830404561AE
:102D6000FEF717F808B1FDF7C2FE0220CDE9000515
:102D7000694602940448FDF763FF002801D0FDF77F
:102D8000B6FE7FBD00200140B00500200100000F0D
:102D90002DE9F04387B014216846FDF7BDFA3548A8
:102DA0000024016841F004010160016801F00401A0
:102DB0000591016841F080010160016801F0800126
:102DC0000591016841F001010160016801F0010114
:102DD0000591016841F002010160016801F0020102
:102DE0000591016841F0080101600068224F00F080
:102DF000080048F213050590002229463846FEF7E0
:102E0000D9FADFF87880002210214046FEF7D2FA86
:102E1000DFF86C9041F21026002231464846FEF75A
:102E2000C9FA00950125CDE9015469463846039455
:102E3000FEF7C8F910200090CDE9015469464046DC
:102E40000394FEF7BFF90096CDE901546946484660
:102E50000394FEF7B7F94FF4C07000904FF4881058
:102E6000CDE9010469464846FEF7ACF907B0BDE874
:102E7000F0830000303802400000024000080240A9
:102E800000040240094810B507490160052141606E
:102E900040F6FF718160FEF799FA002803D0BDE883
:102EA0001040FDF724BE10BD00300040F8050020A2
:102EB000074910B5054808600846FEF730FF0028AE
:102EC00003D0BDE81040FDF712BE10BD000806504B
:102ED0000406002010B586B014216846FDF71CFAE0
:102EE0001B48002419490594C0E900147F21816022
:102EF000FF21C0E9031444618461FEF73DFF08B17E
:102F0000FDF7F5FD8DF800408DF801408DF8024089
:102F10000394012269460E480494FEF7DBFF08B1D2
:102F2000FDF7E5FD01208DF814008DF815008DF8F2
:102F3000160002468DF8174005A90548FEF77EFFEA
:102F4000002801D0FDF7D3FD06B010BD00280040D9
:102F5000140600200F4810B50D4901604FF482712E
:102F6000416000218160C1604FF400720161C0E9DD
:102F70000512C1610162416281620A21C162FFF7EB
:102F800024F8002803D0BDE81040FDF7B0BD10BD07
:102F900000300140340600200F4810B50D49016093
:102FA0004FF48271416000218160C1604FF4007272
:102FB0000161C0E90512C1610162416281620A21B9
:102FC000C162FFF702F8002803D0BDE81040FDF70A
:102FD0008EBD10BD003800408C0600200C4810B596
:102FE0000A4901604FF4E1314160002181600C2207
:102FF000C160C0E904128161C161FFF7F7FB0028DD
:1030000003D0BDE81040FDF772BD10BD004C00407C
:10301000E40600200C4810B50A4901604FF4E13184
:103020004160002181600C22C160C0E9041281610D
:10303000C161FFF7DBFB002803D0BDE81040FDF7BE
:1030400056BD10BD00500040280700200C4810B5A8
:103050000A4901604FF4E1314160002181600C2296
:10306000C160C0E904128161C161FFF7BFFB0028A4
:1030700003D0BDE81040FDF73ABD10BD001001407F
:103080006C0700200C4810B50A4901604FF4E1318B
:103090004160002181600C22C160C0E9041281619D
:1030A000C161FFF7A3FB002803D0BDE81040FDF786
:1030B0001EBD10BD00480040B00700200C4810B5F0
:1030C0000A4901604FF4E1314160002181600C2226
:1030D000C160C0E904128161C161FFF787FB00286C
:1030E00003D0BDE81040FDF702BD10BD0014014043
:1030F000F4070020FEE7FEE77047002103E0491CCB
:103100000A38C9B2C0B20A28F9D2090740EA1160E8
:10311000704700002DE9F041044600680025C168B1
:10312000490618D4C16841F08001C160FEF748F932
:1031300006464FF47A78042707E000BFFEF740F90F
:10314000801B404501D9677701252068C06840068B
:1031500001D4002DF2D02846BDE8F08170B50446B8
:1031600000680025C16821F08001C1602068806886
:10317000800606D42046FEF70DFF10B104206077CC
:103180000125284670BD000038B504461248134B8F
:103190000068B0FBF3F04FF47A7358430090606816
:1031A000B0F5827F0DD10B4600920022802120468F
:1031B00000F016F870B1606D40F0200060650320EB
:1031C00038BD009830B1401E009020688068C04330
:1031D0000006F6D5002038BD1000002000366E0134
:1031E0002DE9F8431E46914688460446089DFEF7A1
:1031F000E7F8401B351AFEF7E3F807462548006854
:10320000C0F3CB30684338E0701C37D0FEF7D8F8F5
:10321000C01BA84203D215B1009860B32CE020680F
:10322000416821F0E00141606068B0F5827F0BD118
:10323000A068B0F5004F02D0B0F5806F04D12068CF
:10324000016821F040010160A06AB0F5005F09D17A
:103250002068016821F4005101602068016841F490
:1032600000510160012084F85100002084F85000D2
:103270000320BDE8F8830025401E00902068816887
:1032800038EA010004D000214945BDD10020F0E713
:103290000121F9E7100000202DE9F0412C4C2B48CA
:1032A0002CA1206041F2A850A08043F23900C4F85C
:1032B0001600A01DFDF742F83320A0762B2184F8DC
:1032C0003010352304F81B3F3825A57504F8010F8D
:1032D0003426A67560703927E7753021A170322237
:1032E00022764FF0310C84F803C084F819C02171A4
:1032F000A2766371E076A3712777E571607721721A
:10330000A6776272E177A072002084F8200036214F
:10331000E172227360730120A073E0739621216132
:1033200040F2D241616384F839004FF4FA60C4F886
:103330003A00074841F288315A3001604900816003
:103340004EF660214160BDE8F08100006838BFCAD8
:10335000904500203230352E3230352E3230342E2A
:103360003600000010B5FF22122100F0C2FA012839
:1033700000D0002010BD10B5044600F0F1F8204642
:1033800000F0B4F9012821D0A17D204600F022FAF6
:1033900001281BD0217F204600F062FA012815D0B9
:1033A00094ED060A204600F06BF901280ED094F93E
:1033B0001D100022204600F065FA012806D0A17FEA
:1033C000204600F02BFA012800D0002010BD00009C
:1033D0002DE9F843104E04461D46306817468846CE
:1033E000A0B1218A0022E068FDF7E4FF4FF0FF3032
:1033F0000090366820682B463A464146B04740B1B7
:103400000125218A0122E068FDF7D4FF2846BDE8A6
:10341000F8830025F5E700007C0000201CB501F0D2
:103420007F0114468DF80010022301AA6946FFF7B8
:10343000CFFF012803D09DF80500207000201CBD9F
:103440002DE9F043ADF5077D884681464FF482743F
:103450001E461746214641A8FCF75EFF21466846F6
:10346000FCF75AFF00258DF810528DF80C5299F890
:103470001500032826D020B1484600F082F9012823
:1034800021D04846FFF76EFF01281CD000220F21F3
:10349000484600F02EFA012815D0484600F04AF9B7
:1034A000012810D0FDF78CFF044610E0FDF788FFDF
:1034B000A04202D2FDF784FF0446FDF781FF001B06
:1034C000B04204D901200DF5077DBDE8F08384AA40
:1034D00012214846FFF7A2FF0128F4D09DF8100200
:1034E0004006E3D583AA13214846FFF797FF01283A
:1034F000E9D09DF80C02387084AA10214846FFF7E5
:103500008DFF0128DFD09DF810220D21484600F0E4
:10351000F0F90128D7D09DF80C328DF804516A4695
:1035200041A948465B1CFFF753FF0128CBD0002080
:10353000694605E00A18537808F80030401CC0B20C
:103540009DF80C229042F5D34846FFF70BFF012867
:10355000B9D0484600F015F90128B4D00020B2E7F0
:1035600010B50446018940680022FDF723FF0A20B8
:1035700001F030FD218901226068FDF71BFFBDE8E5
:1035800010400A2001F026BD2DE9F041ADF5047D83
:103590000E4680464FF482771D46144639466846EB
:1035A000FCF7BAFE394641A8FCF7B6FE00208DF8BC
:1035B0000802381F844200D90446404600F0E1F872
:1035C000012840D0E2B22221404600F092F90128C1
:1035D00039D000220E21404600F08BF9012832D06C
:1035E00000220D21404600F084F901282BD08020D4
:1035F0008DF800000020694604E0325C0B18401C86
:103600005A70C0B2A042F8D3641CA3B241AA40468B
:10361000FFF7DEFE012816D0404600F0C4F801286E
:1036200011D0FDF7CDFE044611E000BFFDF7C8FE46
:10363000A04202D2FDF7C4FE0446FDF7C1FE001B06
:10364000A84204D901200DF5047DBDE8F08182AACD
:1036500012214046FFF7E2FE0128F4D09DF808024F
:103660000007E3D508221221404600F042F9012864
:10367000E9D0404600F085F80128E4D00020E2E7D8
:1036800070B5054610EE100AFDF70FF89FED131BFD
:1036900053EC112BFCF702FF9FED121B53EC112B87
:1036A000FCF76EFFFCF7E8FF0446C0F30742062173
:1036B000284600F01EF901280FD0C4F30722072185
:1036C000284600F016F9012807D0E2B20821284662
:1036D00000F00FF9012800D0002070BD00000000AC
:1036E00080842E410000000080844E4038B504469E
:1036F00000208DF80000204600F032F8012818D094
:103700006A4601212046FFF789FE012811D09DF865
:103710000000012140F080028DF80020204600F0DA
:10372000E8F8012805D0204600F02BF8012800D049
:10373000002038BD10B50446407D02280ED005217A
:10374000204600F074F8012809D0002240212046CC
:1037500000F0CFF8012802D002206075002010BDD3
:1037600010B50446407D012809D00021204600F014
:103770005EF8012804D00120607501F02BFC0020C8
:1037800010BD10B50446407D00280BD00121204615
:1037900000F04DF8012805D000206075012001F0EF
:1037A00019FC002010BD10B50446407D03280ED042
:1037B0000321204600F03BF8012809D040221146A1
:1037C000204600F096F8012802D003206075002002
:1037D00010BD000070B50546481C052801D9012020
:1037E00070BD0D4C01EB41061D21A25D284600F085
:1037F00080F80128F4D034441E216278284600F075
:1038000078F80128ECD0A2782621284600F071F83B
:103810000128E5D0002070BD905A000810B50A4676
:10382000392100F066F8012800D0002010BD38B51D
:10383000054600200C468DF800006A460121284606
:10384000FFF7ECFD01280AD09DF80000012100F0EF
:10385000F80222438DF80020284600F04AF838BDCF
:1038600070B50C460A0A0546202100F042F80128EE
:1038700007D0E2B22121284600F03BF8012800D011
:10388000002070BD70B50C460546012A03D0172CE8
:103890000EDD172412E00E2C01DD0E2404E04FF0A3
:1038A000FF30844200DA0446641C44F0700017E0E4
:1038B000052C01DA05240AE0142C08DD07224D212D
:1038C00000F017F8012813D0E41E64B205E00422CA
:1038D0004D2100F00EF801280AD0641F44F080004A
:1038E000C2B20921284600F004F8012800D00020C7
:1038F00070BD1CB541F080018DF800108DF80120DD
:10390000022301AA6946FFF763FD012800D00020C9
:103910001CBD000010B5502080F31188BFF34F8FFD
:10392000BFF36F8F01F0E0FF18B104494FF08050F2
:103930000860002080F3118810BD000004ED00E055
:103940000248016841F470010160704788ED00E0B1
:103950000148FEF754BD000038080020F0B50268A9
:10396000254C264D264E274F274B4FF0804CA0422A
:1039700009D0604507D0A84205D0B04203D0B84274
:1039800001D0984204D122F0700E4A6842EA0E0239
:10399000A0421BD0604519D0A84217D0B04215D024
:1039A000B84213D0984211D0184DA8420ED0184DED
:1039B000A8420BD0174DA84208D0174DA84205D0F9
:1039C000164DA84202D0164DA84203D122F44075EC
:1039D000CA682A434D6922F080022A4302608A683D
:1039E000C2620A688262A04201D0984201D109698C
:1039F000016301214161F0BD00000140000400406D
:103A000000080040000C004000040140004001405C
:103A1000004401400048014000180040001C0040E4
:103A2000002000408AB201464FF4FA730148FFF7C4
:103A300051B80000B007002010B5806B0021C1858F
:103A4000C184FEF79DFD10BD01680C3151E8002FC7
:103A500022F4907241E80023002BF5D10168143163
:103A600051E8002F22F0010241E80023002BF5D19C
:103A7000016B012909D101680C3151E8002F22F0B6
:103A8000100241E80023002BF5D1202180F83E10E0
:103A900000210163704708B590F83E10222901D03B
:103AA000022008BD82684FF480539A4201D1016917
:103AB00021B1816A9A421BD04AB10AE00268816A48
:103AC0005268C2F308020A80816A891C08E0026910
:103AD00072B10268526802F07F020A70816A491C62
:103AE0008162C18D491E0904090CC18503D019E00A
:103AF00002685268F1E70168CA6822F02002CA60D1
:103B00000168CA6822F48072CA6001684A6922F0BA
:103B100001024A61202180F83E10016B012903D087
:103B2000FEF796FF002008BD0021016301680C31FB
:103B300051E8002F22F0100241E80023002BF5D1BC
:103B400001680A68D20602D50A6849680091818D29
:103B5000FEF715FDE6E7000070B504460068016950
:103B6000E26821F44051114301612169A068E269D2
:103B700008436169114308432168CA6849F20C632C
:103B80009A430243CA6020684169A26921F44071E6
:103B90001143416131492068884202D0304988424E
:103BA00002D1FDF791FE01E0FDF77EFEE269002300
:103BB000192164253226B2F5004F626828D0A0FB97
:103BC0000101930F9200FCF75DFB0146B0FBF5F09D
:103BD0006FF01802504301EB800006EB0010B0FBC1
:103BE000F5F000F0F002B1FBF5F002EB0012B1FBD2
:103BF000F5F06FF01803584301EB800006EB00105E
:103C0000B0FBF5F000F00F0021681044886070BD33
:103C1000A0FB010192185B41FCF734FB0146B0FBAD
:103C2000F5F00201B1FBF5F06FF01803584301EB1A
:103C3000800006EBC000B0FBF5F000F0F80002EBEE
:103C40004002B1FBF5F0584301EB800006EBC000E9
:103C5000B0FBF5F000F00700D6E7000000100140CF
:103C60000014014081628285C28500210164222204
:103C700080F83E2080F83C10016921B10168CA68D3
:103C800042F48072CA6001684A6942F001024A61E6
:103C90000068C16841F02001C160002070472DE933
:103CA000F041984617460E460446069D27E0681CDC
:103CB00025D02DB1FDF784FBA0EB0800A8421ED94A
:103CC00020680C3050E8001F21F4D07140E8001249
:103CD000002AF5D12068143050E8001F21F00101BE
:103CE00040E80012002AF5D1202084F83D0084F835
:103CF0003E00002084F83C000320BDE8F0812068ED
:103D0000006836EA000004D00020B842CFD000207E
:103D1000F3E70120F9E700000148FEF733BC00009B
:103D2000B00700200148FEF72DBC0000F40700207A
:103D3000FEE7000010B50848FDF7DCF84FF0FF3152
:103D40000548FDF781F80448FDF720F804460248CD
:103D5000FDF74EF9204610BDB005002070B5ADF559
:103D6000027D0C4605464FF402716846FCF7D4FA12
:103D70000022684603E0A95C8154521CD2B2A242E0
:103D8000F9D38DF80041FEF709FF0446012806D05B
:103D900041984FF6F771C84208D036A013E03AA018
:103DA00000F0EEFB20460DF5027D70BD3F4CBDF8E6
:103DB0000A01A188884201D03DA004E09DF80801D5
:103DC000000604D43FA000F0DBFB0120EBE741A09C
:103DD00000F0D6FB9DF801014009042848D00528D1
:103DE00046D1BDF80A112846FEF756FF3E48FFF7B8
:103DF000C8FC2E493D480831FDF752FFA06801F08C
:103E000041FB0721012001F02FFB284EC0B20C36E8
:103E1000207056F82000FCF748FC41EC100B34A051
:103E200053EC102B00F0ACFB207806EB800090EDFB
:103E3000000A2D48FFF724FC012808D030A000BF5D
:103E400000F09EFB95F8002142F2107406E030A0CD
:103E5000F6E733A000F094FB95F8002123462946AD
:103E6000214800F04BFB0128F3D030A000F088FB84
:103E7000002098E731313131313131313131313157
:103E80003131313100000000204C6F52614D6163CF
:103E90005F50617273657244617461206465636F21
:103EA0006465206661696C20210D0A00A80200206B
:103EB00032323232323232323232323232323232E2
:103EC000323200003333333333333333333333332A
:103ED0003333330041434B20697320726563656956
:103EE0007665640D0A0000008000002004060020B2
:103EF000547846726571203A2025660D0A0000004C
:103F0000536574554C667265714F4B0D0A00000085
:103F1000536574554C667265714641494C0D0A00F3
:103F2000547841434B4661696C0D0A005478414313
:103F30004B446F6E650D0A000EB500269F4C8DF840
:103F400008604FF0010884F801803746B146A6703A
:103F500000F026FA04F12C000122006804F19E0111
:103F6000FEF760FD002504F10C0A42F2107BA078F8
:103F7000002873D0012805D00228F8D160780128E4
:103F80006DD0A8E08EA000F0FBFA2FB128466D1C82
:103F9000EDB2032864D000E000258F48FFF7F1FB65
:103FA00086498E480831FDF77BFEA06801F06AFA69
:103FB0000721012001F058FAC0B2207057465AF884
:103FC0002000FCF772FB41EC100B85A053EC102B8A
:103FD00000F0D6FA207807EB800090ED000A7E48CA
:103FE000FFF74EFB012841D081A000BF00F0C8FAC6
:103FF000FFF7A0FE8249086000F02EFABCEEC00A6E
:1040000010EE100A00F03CFA10EE100A7D4FFCF79B
:104010004CFB41EC100B7CA153EC102B384600F00C
:10402000BFFA142239467C48FCF75DF97A497BA037
:1040300000F0A6FA7B480088A0807748FCF777F963
:1040400080B27549CDE900105C4B00221B1D114662
:104050007548FEF741FE58B174A00AE086E025E0FD
:1040600084F80290002584F8018080E773A0BDE702
:1040700076A000F085FA6C485B46014690F8002176
:10408000554800F03BFA20B1012774A000F078FAFF
:104090006DE775A000F074FAFA215F48FCF73CF96F
:1040A000022084F80180A070002760E771A000F072
:1040B00067FA4948FFF765FB9AED000A4648FFF7A3
:1040C000DFFA01280FD071A000F05AFAFDF778F955
:1040D000064684F80190A18870A0019100F050FA82
:1040E0004FF4FA672AE074A0EEE74B493A483239B8
:1040F00002AA5B46FFF7A4F901281AD072A000F0CB
:104100003FFA45489DF808103238FFF727FE01288E
:1041100011D0A088401C82B2A2800092FDF73CF82A
:10412000002340490220009AFCF7F8FFFCF7ECFF5F
:1041300009E067A000E069A000F022FAFDF740F96D
:10414000801BB842D1D3A1880198884205D12A4664
:1041500067A000F015FA01272AE03846FCF7C2FFF5
:1041600084F80180002784F8029000E76078012835
:104170001AD16FA000F004FA00F012F9FA212648D3
:10418000FCF7CAF864217048FCF7C6F86F4912487A
:1041900081F80090FFF7E4FA01280CD06CA000BF72
:1041A00000F0EEF984F8019047F23050FCF79AFFE6
:1041B00084F80280DBE66AA0F2E70000A802002093
:1041C0000D0A3D3D3D3D3D3D3D54583D3D3D3D3D50
:1041D0003D3D0D0A00000000800000200406002084
:1041E000547846726571203A2025660D0A00000059
:1041F000536574554C667265714F4B0D0A00000093
:104200004C030020874700207475726269646974EA
:10421000793A20252E3266008D46002025730D0A3E
:104220000000000000000808A0000020736572690B
:10423000616C697A654641494C0D0A0053657455B5
:104240004C667265714641494C0D0A00736572698E
:10425000616C697A654F4B0D0A0000005478466125
:10426000696C0D0A000000005478446F6E650D0AF9
:10427000000000000D0A3D3D3D3D3D3D3D52583D95
:104280003D3D3D3D3D3D0D0A000000005365744439
:104290004C667265714F4B0D0A00000043757272D7
:1042A000656E74206672616D6520636F756E7465EE
:1042B000723A2025640D0A00536574444C66726599
:1042C000714641494C0D0A0052784F4B0D0A0000CF
:1042D00052784661696C0D0A00000000527848610E
:1042E0006E646C65204661696C65640D0A000000AF
:1042F0004E6F2041434B202B2054696D656F7574C0
:10430000203D3E2052657472616E736D69747469EC
:104310006E67205061636B65742025752E2E2E20EC
:1043200074727920636F756E74202564200D0A0005
:104330000D0A3D3D3D3D3D3D3D534C4545503D3DC8
:104340003D3D3D3D3D0D0A009B47002054030020AC
:1043500053657420536C656570204F4B0D0A000047
:1043600053657420536C656570204661696C0D0A55
:1043700000000000FEF708FC084C41F658352846BE
:1043800001F04EF9FEF704FC2088401C81B2218028
:104390003229F4D9FDF71EF9F1E7000000000020F2
:1043A0000749002081F8740021F8700FC880044983
:1043B0005431C883024864210C30FBF7ADBF0000C4
:1043C000D402002030B593B030216846FBF7A4FF3B
:1043D00014210CA8FBF7A0FF1D480024016841F040
:1043E00080510160006800F0805011901948016808
:1043F00041F4804101600068102100F48040119078
:104400000A2000900120CDE903010225CDE9050530
:104410000820CDE907404020CDE9090503200B9095
:104420006846FDF787FA08B172B6FEE70F20CDE9BE
:104430000C058020CDE90E0401210CA81094FDF795
:1044400079F9002801D072B6FEE713B030BD000044
:10445000403802400070004010B500EB8000FCF7CF
:10446000FEF89FED051B53EC112BFCF789F8FCF7C8
:104470002FF900EE100A10BD0000000000F88F4078
:1044800070B52DED048BFCF7EAF80D4645EC180BE2
:104490009FED140B044653EC102B51EC180BFBF75B
:1044A000FDFF45EC184B9FED110B41EC190B53EC44
:1044B000102B51EC180BFBF7F1FF53EC182BFBF70B
:1044C000EDFF53EC192BFBF742FF9FED0A1B53EC5A
:1044D000112BFBF7DDFFFCF7FBF8BDEC048B00EEC6
:1044E000100A70BDCDCCCCCC4C6EB6409A9999993F
:1044F000998191C066666666E600B14010B5FFF727
:1045000043F8012800D0002010BD000008A000F0F2
:1045100037F81148FFF724F80F48FEF72CFF012861
:1045200004D00EA000F02CF8FFF706FD0FA0F9E76D
:104530000D0A3D3D3D3D3D3D3D5374617274204C3F
:104540006F526120536572766963653D3D3D3D3D27
:104550003D3D0D0A0000000080000020496E697496
:10456000204C6F5261204F4B0D0A0000496E697458
:10457000204C6F5261204661696C0D0A00000000FA
:104580000FB4054B10B503A9044A029800F010F9C6
:1045900010BC5DF814FB0000C14E00085803002059
:1045A0000FB4084B10B504A902AA039800F000F953
:1045B000044602A9002000F07EFC204610BC5DF8F5
:1045C00014FB0000B74E000837B514460846064BEA
:1045D0006A46214600F0ECF804466946002000F0E7
:1045E0006AFC20463EBD0000B74E00080907090ED0
:1045F000002804DB00F1E02080F80014704700F090
:104600000F0000F1E02080F8141D704702E008C898
:10461000121F08C1002AFAD170477047002001E03C
:1046200001C1121F002AFBD1704700002DE9FF5F76
:1046300082B00021DDE90430020DDDF840B0034313
:1046400018D044F61050A2F2FF32424315141198CC
:1046500001281FD0A5EB0B00401C5FEA000A4FF0B9
:1046600000064E4FDFF83891B046504615D5CAF1D6
:10467000000413E0119801244AA3012801D16FEA34
:104680000B010298119AC0E90031C0E9024206B05C
:10469000BDE8F09FCBF10000DFE704460021404A6F
:1046A000491842EB0450CDE9001012E0E00707D0B2
:1046B00032463B4640464946FBF7F0FE8046894677
:1046C00032463B4610461946FBF7E8FE06460F46C3
:1046D0006410002CEAD1DDE90401DDE90023BAF120
:1046E000000F06DAFBF7DAFE42464B46FBF7D6FE32
:1046F00005E0FBF745FF42464B46FBF741FF04460A
:104700000E460022284BFCF7F3F803D84FF0FF3099
:10471000014607E00022254B20463146FBF717FEF5
:10472000FCF7CDF8102409E0002C0ADB0A22002354
:10473000FBF7A8FD039B30321A55641E50EA0102B4
:10474000F2D1641C039AC4F111031444119A012A92
:1047500003D0012208430DD10AE0084304D0002011
:104760004FF0110B119072E7A3EB0B056D1E0DE0DE
:104770005B4504DD4FF0000205F1010504E003DABA
:104780004FF00002A5F10105002AECD00298119922
:10479000C0E90231C0E9004579E70000000014409B
:1047A0000000F03F300000000000F0430000E03F58
:1047B0002DE9FF4F95B09A46884606460025EEE162
:1047C000252877D100242746F94A0121039400E0E7
:1047D000044316F8013F203B01FA03F01042F7D1E1
:1047E00030782A2811D06FF02F033078A0F13002F2
:1047F000092A16D8039A44F0020402EB820203EB62
:1048000042021044761C0390EFE758F8042B039201
:10481000002A03DA504244F40054039044F00204A6
:10482000761C30782E2816D116F8010F44F00404B7
:104830002A280DD06FF02F023078A0F13003092B19
:1048400009D807EB870302EB4303C718761CF3E78D
:1048500058F8047B761C30786C280FD006DC4C2886
:1048600017D068280DD06A2814D104E0742810D01D
:104870007A280FD10DE044F400140AE044F48014C7
:1048800001E044F440147278824202D104F58014AD
:10489000761C761C307866280BD013DC582877D02D
:1048A00009DC002875D04528F6D04628F4D04728E2
:1048B0001AD193E118E0632835D0642879D06528AF
:1048C00012D18BE1702873D008DC6728F1D06928F9
:1048D0006FD06E280DD06F2806D1ACE073282CD095
:1048E000752874D0782853D05246179990476D1C7C
:1048F00054E1C4F30250022809D003280DD0D8F89F
:10490000001004280DD00D6008F1040846E1D8F825
:104910000010EA17C1E90052F6E7D8F800100D8040
:10492000F2E70D70F0E718F8041B8DF80010002076
:104930008DF80100EB46012003E058F804BB4FF06E
:10494000FF3061074FF0000102D40DE009F10101D1
:104950008946B9420FDA8145F8DB1BF809100029B6
:10496000F4D108E009F1010189468142FADB1BF824
:1049700009100029F6D103985346A0EB09072146F8
:104980003846179A00F080FA284400EB090507E042
:1049900044E008E10DE01BF8010B524617999047DF
:1049A000B9F10109F7D2534621463846179AF2E089
:1049B00039E00A21C4F302524FF0000B0091022AA1
:1049C00006D058F8040BC117032A09D00AE023E0E7
:1049D00008F1070020F00702F2E80201904605E026
:1049E00000B2C117042A01D140B2C117002906DA6A
:1049F0000A460021404261EB02012D2202E022051D
:104A000004D52B228DF80420012203E0E20701D017
:104A10002022F7E7914657E00A2100E010214FF0ED
:104A2000000B00910BE010214FF0000B44F0040448
:104A30000827009103E008204FF0000B0090C4F31A
:104A40000252022A05D058F8040B0021032A08D08C
:104A500008E008F1070020F00702F2E802019046A2
:104A600003E080B2042A00D1C0B24FF0000922074F
:104A70002AD53278702A07D0DDF800C08CF0100CEF
:104A80005CEA0B0C05D00EE040228DF804200122D8
:104A900008E050EA010306D030238DF804308DF889
:104AA000052002229146009B83F0080353EA0B0382
:104AB0000AD150EA010201D1620705D530228DF8F2
:104AC00004204FF001097F1E3278582A04D039A201
:104AD0000C920CAA02920BE03BA2F9E75B46009A0B
:104AE000FBF7D0FB0C9B9B5C029A521E0292137048
:104AF00050EA0102F2D1029804A9081A00F1200B31
:104B0000600702D524F4803400E001275F4502DD10
:104B1000A7EB0B0000E0002000EB0B0100900398D6
:104B20004944401A0390E00306D453462146179A9D
:104B3000039800F0A9F90544002706E001A85246B1
:104B4000C05D179990476D1C7F1C4F45F6DBE00355
:104B50000CD553462146179A039800F095F9054461
:104B600004E030205246179990476D1C0099481E6A
:104B700000900029F5DC08E002980299524600787E
:104B8000491C0291179990476D1CBBF10001ABF1D4
:104B9000010BF1DC5BE100F065F90544761C30782F
:104BA00000287FF40DAE19B02846BDE8F08F000054
:104BB00009280100303132333435363738396162F3
:104BC00063646566000000003031323334353637B7
:104BD000383941424344454600000000600700D494
:104BE000062708F1070020F00700F0E802238046BE
:104BF00003F0004C5FEA0C0001D097A009E020050B
:104C000001D596A005E0E00701D095A001E0AFF244
:104C10004C001390307823F0004365280CD006DC5C
:104C2000452809D046281DD047287FD13BE066287B
:104C300018D067287AD136E00021112F01DB11202E
:104C400000E0781CCDE9000104A90CA8FFF7EEFCF8
:104C5000DDE90D010C9A4FF0000B07F101091092EC
:104C600000914EE04FF000400097CDE9011004A9FB
:104C70000CA8FFF7DBFCDDE90D020C9B0F994FF050
:104C8000000B91461093009211B9791C00EB0109B9
:104C9000B7EB090003D4C0F1FF3B07F10109A9EB11
:104CA0000700019042E0012F00DA01270021112FB7
:104CB00001DD112000E03846CDE9000104A90CA86F
:104CC000FFF7B4FCDDE90D010C9A00914FF0000BE9
:104CD000B946109221070FD4009A4A4503DA91464B
:104CE00001E0A9F10109B9F1010F05DD109AA9F15F
:104CF0000101515C3029F4D0B84202DA10F1040FFE
:104D000003DA0121CDE9011010E0002803DC83441F
:104D1000A9EB000102E0411C494500DD8946A0EBFA
:104D20000B00401C01904FF000400290200705D47A
:104D30000198484502DB4FF0FF30019000208DF8CC
:104D40004B0002980DF14B07B0F1004F25D0022027
:104D50000C902B200D90029800280CDA4042029013
:104D60002D200D9007E00A210298FBF7CDFC303191
:104D7000029007F8011D0C99481E0C900029F2DCE6
:104D800002980028EFD1791E0D980870307800F055
:104D9000200040F0450007F8020D11A8C01BC01DFF
:104DA00002901398007800B1012000EB09010198EE
:104DB00001EBE071029801440398401A401E0390F1
:104DC000E00306D453462146179A039800F05CF896
:104DD00005441398007818B15246179990476D1CF6
:104DE000E00323D553462146179A039800F04CF868
:104DF00005441BE0BBF1000F07DB0098584504DDBC
:104E00001098179910F80B0001E0179930205246BE
:104E1000904701980BF1010B401E05F1010501902F
:104E200004D12E205246179990476D1CB9F100010C
:104E3000A9F10109DEDC05E017F8010B52461799CC
:104E400090476D1C0299481E02900029F4DC5346DD
:104E50002146179A03989EE62D0000002B000000C3
:104E6000200000002DE9F041044600251E461746AB
:104E7000880404D405E039462020B0476D1C641E28
:104E8000F9D52846BDE8F0812DE9F041044600251A
:104E90001E469046C80301D5302700E0202788042D
:104EA00004D505E041463846B0476D1C641EF9D56F
:104EB0002846BDE8F0810A68531C0B6010707047EB
:104EC00013B56423012269460248FDF703FE0098EA
:104ED0001CBD0000B00700201CB5FCF7B3FAFFF7BB
:104EE00071FAFDF755FFFEF7B1F8FEF755F8FDF73B
:104EF000F1FFFEF72FF8FDF7C5FFFDF7D9FFFEF72D
:104F00006DF8FEF787F8FEF7BDF8FEF7D7F8FDF766
:104F10000FFFFEF7C1F9002501242B46802211A1C5
:104F20001348CDE9004500F087FC012805D011A009
:104F3000FBF7C9FD1A48002000BF00234FF4807220
:104F400018A11A48CDE9004500F076FC012805D0EB
:104F500017A0FBF7B8FD1248002000BF00F041F891
:104F6000FEE700005379735761746368446F67000C
:104F7000754300080D0A4552524F523A204372655C
:104F80006174207461736B205359535741544348E3
:104F9000444F472066616C7365210D0A00000000D4
:104FA000580300204C6F5261000000000D450008BE
:104FB0000D0A4552524F523A204372656174207473
:104FC00061736B204C6F52612066616C7365210DBB
:104FD0000A00000010B500B9012000F021FB0020FC
:104FE00010BD10B500F042FB002010BD2DE9F041CE
:104FF000184C0F460546E6682068001D00F048FA88
:1050000038B9206890F82C1001208840216981432C
:105010002161681C07D137B12168BDE8F0410E4815
:10502000091D00F079BA20683544B5424560216811
:1050300005D2A06BBDE8F041091D00F055BA606BC8
:10504000091D00F051FAA06A854200D2A562BDE8B0
:10505000F0810000140000207C0900202DE9F041BF
:10506000054600F065FA2E4CA068401CA060206840
:105070002C4F10B1606940B32DE02560A068012875
:1050800029D1002606EB860007EB800000F01EFA0F
:10509000761C072EF6D323488C3000F017FA2148EF
:1050A000A03000F013FA1F48B43000F00FFA1D488A
:1050B000C83000F00BFA1B48DC3000F007FA194842
:1050C0008C3060631430A06305E02068E96AC06A30
:1050D000884200D82560606A401C6062E96A01204D
:1050E000226988401043206101EB810007EB8000BA
:1050F000291D00F011FA00F03BFA606900280CD07D
:105100002068E96AC06A884207D207494FF0805098
:105110000860BFF34F8FBFF36F8FBDE8F0810000D1
:1051200014000020A008002004ED00E010B50446A3
:1051300090F8510058B101280CD002280FD050200F
:1051400080F31188BFF34F8FBFF36F8FFEE7206BA3
:1051500000F022FA2046BDE8104000F01DBA10BD54
:1051600010484FF47051420706D0C01D0D4920F081
:105170000700411AC1F570510B4A00230144C2E9EE
:1051800000030839183A21F0070111604B600B60E9
:105190000B1AC0E9001393604FF000405360506158
:1051A000704700009009002068000020144E154C44
:1051B000A6F1C8074FF08058DFF84C9012E000BF0E
:1051C00000F0B6F9F068C568281D00F061F9A06824
:1051D000401EA0606068401E606000F0C9F928466B
:1051E000FFF7A4FF60680028EAD138680128F9D9E0
:1051F000C9F80080BFF34F8FBFF36F8FF2E7000055
:10520000680900201400002004ED00E02DE9F047BB
:105210009A46DDE9098481466FF00303206B03EBB6
:1052200082021044089E20F00707780707D050201C
:1052300080F31188BFF34F8FBFF36F8FFEE7002518
:1052400061B1002023180A5C83F834200A5C12B193
:10525000401C1028F6D384F8435001E084F8345001
:10526000072E00D30626E662C4E91165201D00F072
:1052700038F904F1180000F034F92461C6F1070090
:105280006462A061E56484F850505246494638464D
:1052900000F0C0F82060B8F1000F01D0C8F800405D
:1052A000BDE8F08730B5114900E011460A68824236
:1052B000FBD34B685C18844203D1406818444860B3
:1052C000084643681C18944209D1084C183C2468CD
:1052D000A24209D052681A4442600A681268026009
:1052E000814200D0086030BD0460F9E7680000200A
:1052F0000648416B096829B1416BC968C9684968AA
:10530000816270474FF0FF31FAE70000140000207F
:1053100008484068401C4FF0500080F3118804D0CA
:10532000BFF34F8FBFF36F8FFEE7BFF34F8FBFF316
:105330006F8FFEE7700000202DE9F0410546002741
:1053400000F0CAF9324E306808B9FFF709FF7069FA
:1053500005424ED1C5B3083568070ED005F00700E9
:10536000C0F108000544680707D0502080F3118879
:10537000BFF34F8FBFF36F8FFEE72DB37068854289
:1053800037D82348183001460C6801E020460C4607
:105390006168A94202D221680029F7D131688C42A4
:1053A00027D007682168016060680837411B102911
:1053B0000FD96019420708D0502080F31188BFF33D
:1053C0004F8FBFF36F8FFEE713E041606560FFF71B
:1053D00069FF61687068401A7060B268904200D2DC
:1053E000B060706901430020C4E90001F068401C0E
:1053F000F06000F0DFFA780707D0502080F31188C2
:10540000BFF34F8FBFF36F8FFEE73846BDE8F081E3
:105410005000002010B5031F4FF080741C601B1F4C
:1054200021F001011960191F044B0B6014390A6047
:10543000091F6FF0020244380A6010BD11530008C2
:105440000748084A0168514343F239021144016098
:105450006FF00040B1FBF0F200FB1210704700004B
:10546000500300206D4EC64110B50C460346FFF7B1
:10547000E7FFE11A491C90FBF1F201FB120018440E
:1054800010BD000001490860704700005003002073
:10549000D0E9013201699A60D0E901235A604A6873
:1054A000824201D182684A60002202610868401E7F
:1054B0000860086870470000034B036003F1540064
:1054C00008608020106070475C03002000F1080134
:1054D0004FF0FF32C0E90112C1600161002101609B
:1054E000704700210161704730B50B685A1C02D02B
:1054F00000F1080202E0026904E0224654682568CF
:105500009D42FAD953684B6099608A605160086186
:105510000168491C016030BD42684A6093688B6035
:1055200093685960916008610168491C0160704787
:10553000502080F31188BFF34F8FBFF36F8F0A495C
:105540004868401C486001280CD10848006810F0E9
:10555000FF0F07D0502080F31188BFF34F8FBFF3A8
:105560006F8FFEE7704700007000002004ED00E040
:105570000849486828B1401E486001D180F311886D
:105580007047502080F31188BFF34F8FBFF36F8FA8
:10559000FEE700007000002070B500282AD0164DEC
:1055A000A0F1080460686969084207D1502080F3BF
:1055B0001188BFF34F8FBFF36F8FFEE722683AB1B8
:1055C000502080F31188BFF34F8FBFF36F8FFEE73A
:1055D0008843606000F080F860686968084468602B
:1055E0002046FFF75FFE2869401C2861BDE8704037
:1055F00000F0E0B970BD0000500000204FF0E02046
:1056000000210161816105494FF47A720968B1FB9B
:10561000F2F1491E4161072101617047100000202D
:1056200010B5020014D00F48006B38B1502080F341
:105630001188BFF34F8FBFF36F8FFEE700F04CF878
:1056400000211046FFF7D2FC00F0B4F9002807D182
:1056500005494FF080500860BFF34F8FBFF36F8F45
:1056600010BD00001400002004ED00E010B586B06D
:105670000024039405AA04A903A80494FFF71CFFBF
:10568000DDE903010094CDE9011000230EA11048CB
:10569000059A00F0FEF80F490028C86211D050208A
:1056A00080F31188BFF34F8FBFF36F8F4FF0FF3040
:1056B000886201204861CC6006B0BDE8104000F06F
:1056C00041B806B010BD000049444C450000000040
:1056D000AD510008140000200248016B491C016311
:1056E00070470000140000201448016B11B1012123
:1056F000C16170470021C1610169B1FA81F1C1F155
:105700001F0101EB81020E4951F822306BB101EB10
:10571000820101F108034A6852684A609A4201D145
:1057200052684A60D16801607047502080F3118848
:10573000BFF34F8FBFF36F8FFEE700001400002010
:10574000A00800201CB537480168374A914207D1AC
:10575000502080F31188BFF34F8FBFF36F8FFEE7A8
:1057600000683149491E884207D1502080F31188D2
:10577000BFF34F8FBFF36F8FFEE72C49087801907E
:10578000FF20087008788DF800009DF800009DF853
:10579000002000F0F000904207D0502080F31188E4
:1057A000BFF34F8FBFF36F8FFEE79DF80000204CD3
:1057B00000F0500020700720A06005E09DF8002058
:1057C00052008DF80020401E9DF800201206F5D4EE
:1057D000A060032807D0502080F31188BFF34F8FBB
:1057E000BFF36F8FFEE74FF44070A0600198087020
:1057F0000C482030016841F470010160016841F0FB
:1058000070410160FFF7FAFE00206060FAF7ECFCDF
:105810000848016841F040410160FAF7D1FC0020DE
:105820001CBD000000ED00E071C20F4100E400E08B
:105830007000002034EF00E02DE9FF5F8346DDE9D2
:105840000E87994616468A469000FFF775FD0500BB
:105850001CD05420FFF770FD040014D000202563F5
:1058600084F85100CDE90240CDE900874B4632462D
:1058700051465846FFF7CAFC2046FFF7EFFB0120D0
:1058800004B0BDE8F09F2846FFF786FE4FF0FF30DA
:10589000F6E7F0B585B0DDE90B640A9DA6B1DCB191
:1058A000542700972663022684F85160002604AF2F
:1058B000CDE90246CDE90057FFF7A8FC2046FFF7E7
:1058C000CDFB049805B0F0BD502080F31188BFF3E4
:1058D0004F8FBFF36F8FFEE7502080F31188BFF327
:1058E0004F8FBFF36F8FFEE72DE9F0412F4C00265D
:1058F000206B28B1A069401CA0613046BDE8F08152
:10590000E5686D1CE56013D1606B006838B150200C
:1059100080F31188BFF34F8FBFF36F8FFEE7606B8B
:10592000A16B6163A063206A401C2062FFF7E0FC6A
:10593000A06ADFF87C80854209D3606B0068A0B163
:10594000606BC068C7687868854211D2A062206821
:10595000C06A00EB800158F82100012800D9012617
:10596000E0690028C9D00126C7E74FF0FF30EDE716
:10597000381DFFF78DFDB86A18B107F11800FFF761
:1059800087FDF96A0120226988401043206101EBFC
:10599000810108EB8100391DFFF7BEFDF86A21681F
:1059A000C96A8842C9D30126C7E700001400002055
:1059B000A00800202DE9F0472C4D00242746286B35
:1059C00038B1FFF7B5FD286B401E2863286B40B146
:1059D00046E0502080F31188BFF34F8FBFF36F8FE5
:1059E000FEE7A968224E0120D1B3A6F1B409804692
:1059F0003068E8B1F068C46804F11800FFF748FDAA
:105A0000201DFFF745FDE06A2A6908FA00F11143FD
:105A1000296100EB800109EB8100211DFFF77CFD6E
:105A2000E06A2968C96A8842E2D3C5F81C80DFE7CA
:105A30000CB1FFF75DFCAC6944B14646FFF754FF7B
:105A400000B1EE61641EF9D10020A861E86938B1A7
:105A50000849012738070860BFF34F8FBFF36F8FE6
:105A6000FFF786FD3846BDE8F087000014000020EF
:105A70005409002004ED00E00000000000000000D8
:105A800001020304060708090000000001020304E4
:105A900072740092740048940078C40078A40000E6
:105AA000C05A0008000000205C0300004409000800
:105AB000285B00085C030020A44800001C46000886
:105AC0004132018210036124F41AAA0141133921E1
:105AD00014088C0612201404024032022908198985
